:020000041000EA
:108000000000060881800010CF8100102F82001030
:10801000CF810010CF810010CF8100100000000040
:10802000000000000000000000000000CF810010F0
:10803000CF81001000000000CF810010CF81001020
:10804000CF810010CF810010CF810010CF810010B0
:10805000CF810010CF810010CF810010CF810010A0
:10806000CF810010CF810010CF810010CF81001090
:10807000CF810010CF810010CF810010CF81001080
:1080800000F0A7F80E480F490022814201D004C039
:10809000FBE70D480D490E4A814202D008CA08C0CC
:1080A000FAE70C484FF47001026842EA01020260EC
:1080B000BFF34F8FBFF36F8F00F042F800DE000078
:1080C0000000020804000208000002080000020884
:1080D000B882001088ED00E080B56F4600F07CF8B3
:1080E00080BD80B56F4600F075F880BD80B56F46E5
:1080F00000F074F880BD40F20101C0F602010120D9
:108100000870704780B56F4682B0019000F002F8A9
:1081100002B080BD80B56F4686B0039048F248201B
:10812000C1F2000000F045F8039800680190049047
:1081300000F042F801980590FFF7CEFF06B080BD31
:1081400080B56F468CB0FFF7CCFFFFF7D4FF48F245
:108150006C20C1F2000000F02CF80020039040F2E7
:108160000000C0F606000A9040F20401C0F60201C9
:108170000B91884204D8FFE703A8FFF7C3FF17E07D
:10818000FFF7B4FF40F20401C0F602018842F3D8C1
:10819000FFE748F2A821C1F2000104A8019000F015
:1081A00020F8019848F26C21C1F2000100F02FF88C
:1081B000FEE781B001B0704740F20001C0F6020155
:1081C00001200870704781B00090FFE7FEE7FFE7ED
:1081D000FEE7704772B6704762B67047EFF30880EB
:1081E000704782B00091014600980190086001201C
:1081F000486048F2B020C1F20000026840680A619D
:108200004861042088600020C86002B0704780B5D3
:108210006F4688B090E87441EC466346012083E8DD
:108220007441ADF81C0060460691FFF7CCFFFFE7F4
:04823000FEE7D4D4BD
:10823400636F72655F6D345C7372632F6D61696E19
:108244002E72730034820010130000000700000037
:1082540001000000636F72655F6D345C7372632F9D
:108264006D61696E2E727300588200101300000055
:108274000700000001000000537461636B206F76F7
:108284006572666C6F7720616674657220616C6CD0
:108294006F636174696E67206578656375746F7266
:1082A400730000007C820010290000000000000020
:0482B40000000000C6
:0400000510008081E6
:00000001FF
