:020000041000EA
:200000000000020881000010F5010010B50300100000000000000000000000000000000077
:20002000000000000000000000000000F50100100000000000000000F5010010F5010010AE
:20004000F5010010F5010010F5010010F5010010F5010010F5010010F5010010F501001070
:20006000F5010010F5010010F5010010F5010010F5010010F5010010F5010010F501001050
:2000800000F0BAF8084809490022814201D004C0FBE707480749084A814202D008CA08C0A0
:2000A000FAE700F011F800DE000000080400000800000008000000083C04001081B001B032
:2000C000704781B0FFE7FEE780B500AF8CB003A8019000F030F800F039F81048FFF7EEFF9D
:2000E000019A002010600E48D0610E491162884205D8FFE703A800F02FF8FFF7E2FF00F06E
:200100001FF808498842F5D8FFE7074904A8009000F07AF80098014900F08CF8CC030010D7
:2001200000000208040000080804001080B500AF00F065F880BD80B500AF00F05EF880BDB8
:2001400080B500AF00F05DF880BDD4D401490120087070470100000880B500AF82B0019047
:2001600000F002F802B080BD80B500AFA0B009A9059108601948FFF7A1FF05990868006855
:200180000690C86200F02CF805990698886500200790FFE707980490092808D8FFE70498FF
:2001A00043001AAA8021D152401C0790F2E715A801901AA91422039200F0F7F80199039AB6
:2001C0000FA8029000F0F1F80299039A0AA800F0ECF8FFF7ABFF20B080BDC0462404001054
:2001E00001490120087070470000000881B00090FFE7FEE7FFE7FEE7704772B6704762B658
:200200007047EFF30880704782B000910146009801900860012048600548026840680A61D8
:200220004861042088600020C86002B07047C0463404001080B500AF88B06A46134670C8AD
:2002400070C370C870C30120908306911046FFF7CDFF80B500AF00F001F880BDF0B503AFBC
:2002600087B0102A68D304924342032203921340C418002B16D002460E4635781570521C81
:20028000A2420FD275781570521CA2420AD2B5781570521CA24205D2F5781570521C361D6B
:2002A000A242EAD301900498C01A0490024603988243A518C81802908007009240D0012AD7
:2002C00052DB029EF20018205142024005920140069103988643306810360599C840314684
:2002E0000C390A681146069B9940014302C4AC423AD20598C2403046083800680146069BCD
:200300009940114302C4AC422ED20599C840311F09680A46069B9A40024304C4AC4223D2DA
:200320000598C14030680246069B9A400A4304C41036AC42D1D317E00546002A1DD132E06B
:20034000012A11DB0299086801C4AC420CD2486801C4AC4208D2886801C4AC4204D2C86804
:2003600001C41031AC42EED3049A039802400098029909180198002A15D0AC180A782A7071
:200380006A1CA2420FD24B781370521CA2420AD28B781370521CA24205D2CB781370551CB8
:2003A000091DA542EAD307B0F0BD80B500AFFFF750FF80BDFFE7FEE7636F72655F6D305CDD
:2003C0007372632F6D61696E2E727300B8030010130000000900000001000000537461637B
:2003E0006B206F766572666C6F7720616674657220616C6C6F636174696E672065786563C9
:2004000075746F7273000000DC03001029000000636F72655F6D305C7372632F6D61696E6A
:1C0420002E7273001004001013000000090000000100000000000000000000006C
:208000000000060881800010CF8100102F820010CF810010CF810010CF8100100000000000
:20802000000000000000000000000000CF810010CF81001000000000CF810010CF810010C0
:20804000CF810010CF810010CF810010CF810010CF810010CF810010CF810010CF81001020
:20806000CF810010CF810010CF810010CF810010CF810010CF810010CF810010CF81001000
:2080800000F0A7F80E480F490022814201D004C0FBE70D480D490E4A814202D008CA08C015
:2080A000FAE70C484FF47001026842EA01020260BFF34F8FBFF36F8F00F042F800DE000094
:2080C00000000208040002080000020800000208B882001088ED00E080B56F4600F07CF887
:2080E00080BD80B56F4600F075F880BD80B56F4600F074F880BD40F20101C0F6020101202E
:208100000870704780B56F4682B0019000F002F802B080BD80B56F4686B0039048F2482055
:20812000C1F2000000F045F8039800680190049000F042F801980590FFF7CEFF06B080BD29
:2081400080B56F468CB0FFF7CCFFFFF7D4FF48F26C20C1F2000000F02CF80020039040F2FD
:208160000000C0F606000A9040F20401C0F602010B91884204D8FFE703A8FFF7C3FF17E037
:20818000FFF7B4FF40F20401C0F602018842F3D8FFE748F2A821C1F2000104A8019000F0E7
:2081A00020F8019848F26C21C1F2000100F02FF8FEE781B001B0704740F20001C0F6020112
:2081C00001200870704781B00090FFE7FEE7FFE7FEE7704772B6704762B67047EFF3088029
:2081E000704782B0009101460098019008600120486048F2B020C1F20000026840680A612A
:208200004861042088600020C86002B0704780B56F4688B090E87441EC466346012083E842
:208220007441ADF81C0060460691FFF7CCFFFFE7FEE7D4D4636F72655F6D345C7372632FDB
:208240006D61696E2E72730034820010130000000700000001000000636F72655F6D345C80
:208260007372632F6D61696E2E72730058820010130000000700000001000000537461633F
:208280006B206F766572666C6F7720616674657220616C6C6F636174696E672065786563AA
:1882A00075746F72730000007C82001029000000000000000000000052
:040000051000008166
:00000001FF
